{
  "contractName": "WeiboAccount",
  "abi": [
    {
      "inputs": [],
      "payable": false,
      "stateMutability": "nonpayable",
      "type": "constructor"
    },
    {
      "payable": true,
      "stateMutability": "payable",
      "type": "fallback"
    },
    {
      "anonymous": false,
      "inputs": [
        {
          "indexed": true,
          "name": "from",
          "type": "address"
        },
        {
          "indexed": false,
          "name": "_amount",
          "type": "uint256"
        }
      ],
      "name": "LogDonate",
      "type": "event"
    },
    {
      "constant": false,
      "inputs": [
        {
          "name": "weiboString",
          "type": "string"
        }
      ],
      "name": "weibo",
      "outputs": [],
      "payable": false,
      "stateMutability": "nonpayable",
      "type": "function"
    },
    {
      "constant": true,
      "inputs": [
        {
          "name": "weiboId",
          "type": "uint256"
        }
      ],
      "name": "getWeibo",
      "outputs": [
        {
          "name": "weiboString",
          "type": "string"
        },
        {
          "name": "timestamp",
          "type": "uint256"
        }
      ],
      "payable": false,
      "stateMutability": "view",
      "type": "function"
    },
    {
      "constant": true,
      "inputs": [],
      "name": "getLatestWeibo",
      "outputs": [
        {
          "name": "weiboString",
          "type": "string"
        },
        {
          "name": "timestamp",
          "type": "uint256"
        },
        {
          "name": "numberOfWeibos",
          "type": "uint256"
        }
      ],
      "payable": false,
      "stateMutability": "view",
      "type": "function"
    },
    {
      "constant": true,
      "inputs": [],
      "name": "getOwnerAddress",
      "outputs": [
        {
          "name": "adminAddress",
          "type": "address"
        }
      ],
      "payable": false,
      "stateMutability": "view",
      "type": "function"
    },
    {
      "constant": true,
      "inputs": [],
      "name": "getNumberOfWeibos",
      "outputs": [
        {
          "name": "numberOfWeibos",
          "type": "uint256"
        }
      ],
      "payable": false,
      "stateMutability": "view",
      "type": "function"
    },
    {
      "constant": false,
      "inputs": [
        {
          "name": "receiver",
          "type": "address"
        }
      ],
      "name": "adminRetrieveDonations",
      "outputs": [],
      "payable": false,
      "stateMutability": "nonpayable",
      "type": "function"
    },
    {
      "constant": false,
      "inputs": [],
      "name": "adminDeleteAccount",
      "outputs": [],
      "payable": false,
      "stateMutability": "nonpayable",
      "type": "function"
    }
  ],
  "bytecode": "0x608060405234801561001057600080fd5b50600060018190555033600260006101000a81548173ffffffffffffffffffffffffffffffffffffffff021916908373ffffffffffffffffffffffffffffffffffffffff16021790555061082c806100696000396000f300608060405260043610610083576000357c0100000000000000000000000000000000000000000000000000000000900463ffffffff1680630c4f65bd146100d35780632f5821ca1461012a5780633b401fd7146101935780633d4e598c146102405780633e450fff146102de5780635c3e426c146102f5578063d2279b5414610338575b3373ffffffffffffffffffffffffffffffffffffffff167fc651c526da5277c9cbde59963e1c4e6324da2fae97ff1e31a326a0475664a383346040518082815260200191505060405180910390a2005b3480156100df57600080fd5b506100e8610363565b604051808273ffffffffffffffffffffffffffffffffffffffff1673ffffffffffffffffffffffffffffffffffffffff16815260200191505060405180910390f35b34801561013657600080fd5b50610191600480360381019080803590602001908201803590602001908080601f016020809104026020016040519081016040528093929190818152602001838380828437820191505050505050919291929050505061038d565b005b34801561019f57600080fd5b506101be60048036038101908080359060200190929190505050610457565b6040518080602001838152602001828103825284818151815260200191508051906020019080838360005b838110156102045780820151818401526020810190506101e9565b50505050905090810190601f1680156102315780820380516001836020036101000a031916815260200191505b50935050505060405180910390f35b34801561024c57600080fd5b50610255610528565b6040518080602001848152602001838152602001828103825285818151815260200191508051906020019080838360005b838110156102a1578082015181840152602081019050610286565b50505050905090810190601f1680156102ce5780820380516001836020036101000a031916815260200191505b5094505050505060405180910390f35b3480156102ea57600080fd5b506102f3610607565b005b34801561030157600080fd5b50610336600480360381019080803573ffffffffffffffffffffffffffffffffffffffff16906020019092919050505061069e565b005b34801561034457600080fd5b5061034d610751565b6040518082815260200191505060405180910390f35b6000600260009054906101000a900473ffffffffffffffffffffffffffffffffffffffff16905090565b600260009054906101000a900473ffffffffffffffffffffffffffffffffffffffff1673ffffffffffffffffffffffffffffffffffffffff163373ffffffffffffffffffffffffffffffffffffffff161415156103e957600080fd5b60a08151111515156103fa57600080fd5b42600080600154815260200190815260200160002060000181905550806000806001548152602001908152602001600020600101908051906020019061044192919061075b565b5060016000815480929190600101919050555050565b606060008060008481526020019081526020016000206001018054600181600116156101000203166002900480601f0160208091040260200160405190810160405280929190818152602001828054600181600116156101000203166002900480156105045780601f106104d957610100808354040283529160200191610504565b820191906000526020600020905b8154815290600101906020018083116104e757829003601f168201915b50505050509150600080848152602001908152602001600020600001549050915091565b6060600080600080600180540381526020019081526020016000206001018054600181600116156101000203166002900480601f0160208091040260200160405190810160405280929190818152602001828054600181600116156101000203166002900480156105da5780601f106105af576101008083540402835291602001916105da565b820191906000526020600020905b8154815290600101906020018083116105bd57829003601f168201915b50505050509250600080600180540381526020019081526020016000206000015491506001549050909192565b600260009054906101000a900473ffffffffffffffffffffffffffffffffffffffff1673ffffffffffffffffffffffffffffffffffffffff163373ffffffffffffffffffffffffffffffffffffffff1614151561066357600080fd5b600260009054906101000a900473ffffffffffffffffffffffffffffffffffffffff1673ffffffffffffffffffffffffffffffffffffffff16ff5b600260009054906101000a900473ffffffffffffffffffffffffffffffffffffffff1673ffffffffffffffffffffffffffffffffffffffff163373ffffffffffffffffffffffffffffffffffffffff161415156106fa57600080fd5b8073ffffffffffffffffffffffffffffffffffffffff166108fc3073ffffffffffffffffffffffffffffffffffffffff16319081150290604051600060405180830381858888f19350505050151561074e57fe5b50565b6000600154905090565b828054600181600116156101000203166002900490600052602060002090601f016020900481019282601f1061079c57805160ff19168380011785556107ca565b828001600101855582156107ca579182015b828111156107c95782518255916020019190600101906107ae565b5b5090506107d791906107db565b5090565b6107fd91905b808211156107f95760008160009055506001016107e1565b5090565b905600a165627a7a72305820334be13ff3be37b03821b39b6d967997620a00c2236f5255a1c07e26772742500029",
  "source": "pragma solidity ^0.4.25;\r\n\r\ncontract WeiboAccount {\r\n\r\n  struct Weibo {\r\n    uint timestamp;\r\n    string weiboString;\r\n  }\r\n\r\n  mapping (uint => Weibo) _weibos;\r\n\r\n  uint _numberOfWeibos;\r\n\r\n  address _adminAddress;\r\n\r\n  modifier onlyAdmin {\r\n    require(msg.sender == _adminAddress);\r\n    _;\r\n  }\r\n\r\n  constructor() public {\r\n    _numberOfWeibos = 0;\r\n    _adminAddress = msg.sender;\r\n  }\r\n\r\n  function weibo(string weiboString) public onlyAdmin {\r\n    require (bytes(weiboString).length <= 160);\r\n    _weibos[_numberOfWeibos].timestamp = now;\r\n    _weibos[_numberOfWeibos].weiboString = weiboString;\r\n    _numberOfWeibos++;\r\n  }\r\n\r\n  function getWeibo(uint weiboId) public constant returns (string weiboString, uint timestamp) {\r\n    weiboString = _weibos[weiboId].weiboString;\r\n    timestamp = _weibos[weiboId].timestamp;\r\n  }\r\n\r\n  function getLatestWeibo() public constant returns (string weiboString, uint timestamp, uint numberOfWeibos) {\r\n    weiboString = _weibos[_numberOfWeibos-1].weiboString;\r\n    timestamp = _weibos[_numberOfWeibos-1].timestamp;\r\n    numberOfWeibos = _numberOfWeibos;\r\n  }\r\n\r\n  function getOwnerAddress() public constant returns (address adminAddress) {\r\n    return _adminAddress;\r\n  }\r\n\r\n  function getNumberOfWeibos() public constant returns (uint numberOfWeibos) {\r\n    return _numberOfWeibos;\r\n  }\r\n\r\n  function adminRetrieveDonations(address receiver) public onlyAdmin {\r\n    assert(receiver.send(address(this).balance));\r\n  }\r\n\r\n  function adminDeleteAccount() public onlyAdmin {\r\n    selfdestruct(_adminAddress);\r\n  }\r\n\r\n  event LogDonate(address indexed from, uint _amount);\r\n\r\n  function() public payable {\r\n    emit LogDonate(msg.sender, msg.value);\r\n  }\r\n\r\n}\r\n",
  "sourcePath": "C:\\Users\\daszh\\Desktop\\truffleweb\\truffleweb\\contracts\\Account.sol",
  "compiler": {
    "name": "solc",
    "version": "0.4.25+commit.59dbf8f1.Emscripten.clang"
  },
  "schemaVersion": "2.0.2",
  "updatedAt": "2018-12-31T05:49:32.020Z"
}