{
  "contractName": "WeiboRegistry",
  "abi": [
    {
      "inputs": [],
      "payable": false,
      "stateMutability": "nonpayable",
      "type": "constructor"
    },
    {
      "payable": true,
      "stateMutability": "payable",
      "type": "fallback"
    },
    {
      "anonymous": false,
      "inputs": [
        {
          "indexed": true,
          "name": "from",
          "type": "address"
        },
        {
          "indexed": false,
          "name": "_amount",
          "type": "uint256"
        }
      ],
      "name": "LogDonate",
      "type": "event"
    },
    {
      "constant": false,
      "inputs": [
        {
          "name": "name",
          "type": "string"
        },
        {
          "name": "accountAddress",
          "type": "address"
        }
      ],
      "name": "register",
      "outputs": [],
      "payable": false,
      "stateMutability": "nonpayable",
      "type": "function"
    },
    {
      "constant": true,
      "inputs": [],
      "name": "getNumberOfAccounts",
      "outputs": [
        {
          "name": "numberOfAccounts",
          "type": "uint256"
        }
      ],
      "payable": false,
      "stateMutability": "view",
      "type": "function"
    },
    {
      "constant": true,
      "inputs": [
        {
          "name": "name",
          "type": "string"
        }
      ],
      "name": "getAddressOfName",
      "outputs": [
        {
          "name": "addr",
          "type": "address"
        }
      ],
      "payable": false,
      "stateMutability": "view",
      "type": "function"
    },
    {
      "constant": true,
      "inputs": [
        {
          "name": "addr",
          "type": "address"
        }
      ],
      "name": "getNameOfAddress",
      "outputs": [
        {
          "name": "name",
          "type": "string"
        }
      ],
      "payable": false,
      "stateMutability": "view",
      "type": "function"
    },
    {
      "constant": true,
      "inputs": [
        {
          "name": "id",
          "type": "uint256"
        }
      ],
      "name": "getAddressOfId",
      "outputs": [
        {
          "name": "addr",
          "type": "address"
        }
      ],
      "payable": false,
      "stateMutability": "view",
      "type": "function"
    },
    {
      "constant": false,
      "inputs": [],
      "name": "adminRetrieveDonations",
      "outputs": [],
      "payable": false,
      "stateMutability": "nonpayable",
      "type": "function"
    },
    {
      "constant": false,
      "inputs": [],
      "name": "adminDeleteRegistry",
      "outputs": [],
      "payable": false,
      "stateMutability": "nonpayable",
      "type": "function"
    }
  ],
  "bytecode": "0x608060405234801561001057600080fd5b5033600460006101000a81548173ffffffffffffffffffffffffffffffffffffffff021916908373ffffffffffffffffffffffffffffffffffffffff1602179055506000600381905550610a1d806100696000396000f300608060405260043610610083576000357c0100000000000000000000000000000000000000000000000000000000900463ffffffff1680631e59c529146100d3578063309e36ef1461015c578063345e34161461018757806338ec6ba81461019e5780633af41dc214610247578063b2dad25d1461025e578063ec43eeb61461031a575b3373ffffffffffffffffffffffffffffffffffffffff167fc651c526da5277c9cbde59963e1c4e6324da2fae97ff1e31a326a0475664a383346040518082815260200191505060405180910390a2005b3480156100df57600080fd5b5061015a600480360381019080803590602001908201803590602001908080601f0160208091040260200160405190810160405280939291908181526020018383808284378201915050505050509192919290803573ffffffffffffffffffffffffffffffffffffffff169060200190929190505050610387565b005b34801561016857600080fd5b50610171610625565b6040518082815260200191505060405180910390f35b34801561019357600080fd5b5061019c61062f565b005b3480156101aa57600080fd5b50610205600480360381019080803590602001908201803590602001908080601f0160208091040260200160405190810160405280939291908181526020018383808284378201915050505050509192919290505050610703565b604051808273ffffffffffffffffffffffffffffffffffffffff1673ffffffffffffffffffffffffffffffffffffffff16815260200191505060405180910390f35b34801561025357600080fd5b5061025c610798565b005b34801561026a57600080fd5b5061029f600480360381019080803573ffffffffffffffffffffffffffffffffffffffff16906020019092919050505061082f565b6040518080602001828103825283818151815260200191508051906020019080838360005b838110156102df5780820151818401526020810190506102c4565b50505050905090810190601f16801561030c5780820380516001836020036101000a031916815260200191505b509250505060405180910390f35b34801561032657600080fd5b506103456004803603810190808035906020019092919050505061090f565b604051808273ffffffffffffffffffffffffffffffffffffffff1673ffffffffffffffffffffffffffffffffffffffff16815260200191505060405180910390f35b600073ffffffffffffffffffffffffffffffffffffffff166002836040518082805190602001908083835b6020831015156103d757805182526020820191506020810190506020830392506103b2565b6001836020036101000a038019825116818451168082178552505050505050905001915050908152602001604051809103902060009054906101000a900473ffffffffffffffffffffffffffffffffffffffff1673ffffffffffffffffffffffffffffffffffffffff1614151561044d57600080fd5b60008060008373ffffffffffffffffffffffffffffffffffffffff1673ffffffffffffffffffffffffffffffffffffffff1681526020019081526020016000208054600181600116156101000203166002900490501415156104ae57600080fd5b604082511015156104be57600080fd5b816000808373ffffffffffffffffffffffffffffffffffffffff1673ffffffffffffffffffffffffffffffffffffffff168152602001908152602001600020908051906020019061051092919061094c565b50806002836040518082805190602001908083835b60208310151561054a5780518252602082019150602081019050602083039250610525565b6001836020036101000a038019825116818451168082178552505050505050905001915050908152602001604051809103902060006101000a81548173ffffffffffffffffffffffffffffffffffffffff021916908373ffffffffffffffffffffffffffffffffffffffff1602179055508060016000600354815260200190815260200160002060006101000a81548173ffffffffffffffffffffffffffffffffffffffff021916908373ffffffffffffffffffffffffffffffffffffffff1602179055506003600081548092919060010191905055505050565b6000600354905090565b600460009054906101000a900473ffffffffffffffffffffffffffffffffffffffff1673ffffffffffffffffffffffffffffffffffffffff163373ffffffffffffffffffffffffffffffffffffffff1614151561068b57600080fd5b600460009054906101000a900473ffffffffffffffffffffffffffffffffffffffff1673ffffffffffffffffffffffffffffffffffffffff166108fc3073ffffffffffffffffffffffffffffffffffffffff16319081150290604051600060405180830381858888f19350505050151561070157fe5b565b60006002826040518082805190602001908083835b60208310151561073d5780518252602082019150602081019050602083039250610718565b6001836020036101000a038019825116818451168082178552505050505050905001915050908152602001604051809103902060009054906101000a900473ffffffffffffffffffffffffffffffffffffffff169050919050565b600460009054906101000a900473ffffffffffffffffffffffffffffffffffffffff1673ffffffffffffffffffffffffffffffffffffffff163373ffffffffffffffffffffffffffffffffffffffff161415156107f457600080fd5b600460009054906101000a900473ffffffffffffffffffffffffffffffffffffffff1673ffffffffffffffffffffffffffffffffffffffff16ff5b60606000808373ffffffffffffffffffffffffffffffffffffffff1673ffffffffffffffffffffffffffffffffffffffff1681526020019081526020016000208054600181600116156101000203166002900480601f0160208091040260200160405190810160405280929190818152602001828054600181600116156101000203166002900480156109035780601f106108d857610100808354040283529160200191610903565b820191906000526020600020905b8154815290600101906020018083116108e657829003601f168201915b50505050509050919050565b60006001600083815260200190815260200160002060009054906101000a900473ffffffffffffffffffffffffffffffffffffffff169050919050565b828054600181600116156101000203166002900490600052602060002090601f016020900481019282601f1061098d57805160ff19168380011785556109bb565b828001600101855582156109bb579182015b828111156109ba57825182559160200191906001019061099f565b5b5090506109c891906109cc565b5090565b6109ee91905b808211156109ea5760008160009055506001016109d2565b5090565b905600a165627a7a72305820fa19f7595557a9a36453ad1de0c4c445a05b8cf23b006da47978ad1c4a8e52ff0029",
  "source": "pragma solidity ^0.4.25;\r\n\r\ncontract WeiboRegistry {\r\n\r\n  mapping (address => string) _addressToAccountName;//地址到用户名\r\n  mapping (uint => address) _accountIdToAccountAddress;//id到用户地址\r\n  mapping (string => address) _accountNameToAddress;//用户名到地址\r\n  uint _numberOfAccounts;//用户数量\r\n  address _registryAdmin;//管理者用户\r\n\r\n  modifier onlyRegistryAdmin {//管理者权限\r\n    require(msg.sender == _registryAdmin);\r\n    _;\r\n  }\r\n\r\n  constructor() public {\r\n    _registryAdmin = msg.sender;\r\n    _numberOfAccounts = 0;\r\n  }\r\n\r\n  function register(string name, address accountAddress) public {//注册\r\n    //确保信息未注册\r\n    require(_accountNameToAddress[name] == address(0));\r\n    require(bytes(_addressToAccountName[accountAddress]).length == 0);\r\n    require(bytes(name).length < 64);\r\n\r\n    //添加信息\r\n    _addressToAccountName[accountAddress] = name;\r\n    _accountNameToAddress[name] = accountAddress;\r\n    _accountIdToAccountAddress[_numberOfAccounts] = accountAddress;\r\n    _numberOfAccounts++;\r\n  }\r\n\r\n  function getNumberOfAccounts() public constant returns (uint numberOfAccounts) {\r\n    numberOfAccounts = _numberOfAccounts;\r\n  }\r\n\r\n  function getAddressOfName(string name) public constant returns (address addr) {\r\n    addr = _accountNameToAddress[name];\r\n  }\r\n\r\n  function getNameOfAddress(address addr) public constant returns (string name) {\r\n    name = _addressToAccountName[addr];\r\n  }\r\n\r\n  function getAddressOfId(uint id) public constant returns (address addr) {\r\n    addr = _accountIdToAccountAddress[id];\r\n  }\r\n\r\n  //管理员取得打赏\r\n  function adminRetrieveDonations() public onlyRegistryAdmin {\r\n    assert(_registryAdmin.send(address(this).balance));\r\n  }\r\n\r\n  //管理员删除\r\n  function adminDeleteRegistry() public onlyRegistryAdmin {\r\n    selfdestruct(_registryAdmin);\r\n  }\r\n\r\n  //记录捐献的用户和数量\r\n  event LogDonate(address indexed from, uint _amount);\r\n\r\n  function() public payable {\r\n    emit LogDonate(msg.sender, msg.value);\r\n  }\r\n\r\n}\r\n",
  "sourcePath": "C:\\Users\\daszh\\Desktop\\truffleweb\\truffleweb\\contracts\\Registry.sol",
  "compiler": {
    "name": "solc",
    "version": "0.4.25+commit.59dbf8f1.Emscripten.clang"
  },
  "schemaVersion": "2.0.2",
  "updatedAt": "2018-12-31T05:49:32.024Z"
}